{
  "_format": "hh-sol-artifact-1",
  "contractName": "Calculator",
  "sourceName": "contracts/Calculator.sol",
  "abi": [
    {
      "inputs": [
        {
          "internalType": "int256",
          "name": "_num1",
          "type": "int256"
        },
        {
          "internalType": "int256",
          "name": "_num2",
          "type": "int256"
        }
      ],
      "name": "add",
      "outputs": [
        {
          "internalType": "int256",
          "name": "",
          "type": "int256"
        }
      ],
      "stateMutability": "pure",
      "type": "function"
    },
    {
      "inputs": [
        {
          "internalType": "int256",
          "name": "_num1",
          "type": "int256"
        },
        {
          "internalType": "int256",
          "name": "_num2",
          "type": "int256"
        }
      ],
      "name": "mul",
      "outputs": [
        {
          "internalType": "int256",
          "name": "",
          "type": "int256"
        }
      ],
      "stateMutability": "pure",
      "type": "function"
    },
    {
      "inputs": [
        {
          "internalType": "int256",
          "name": "_num1",
          "type": "int256"
        },
        {
          "internalType": "int256",
          "name": "_num2",
          "type": "int256"
        }
      ],
      "name": "sub",
      "outputs": [
        {
          "internalType": "int256",
          "name": "",
          "type": "int256"
        }
      ],
      "stateMutability": "pure",
      "type": "function"
    }
  ],
  "bytecode": "0x608060405234801561001057600080fd5b50610458806100206000396000f3fe608060405234801561001057600080fd5b50600436106100415760003560e01c8063a5f3c23b14610046578063adefc37b14610076578063bbe93d91146100a6575b600080fd5b610060600480360381019061005b919061012d565b6100d6565b60405161006d9190610178565b60405180910390f35b610090600480360381019061008b919061012d565b6100ec565b60405161009d9190610178565b60405180910390f35b6100c060048036038101906100bb919061012d565b610102565b6040516100cd9190610178565b60405180910390f35b600081836100e49190610193565b905092915050565b600081836100fa919061033e565b905092915050565b600081836101109190610227565b905092915050565b6000813590506101278161040b565b92915050565b6000806040838503121561014057600080fd5b600061014e85828601610118565b925050602061015f85828601610118565b9150509250929050565b610172816103d2565b82525050565b600060208201905061018d6000830184610169565b92915050565b600061019e826103d2565b91506101a9836103d2565b9250817f7fffffffffffffffffffffffffffffffffffffffffffffffffffffffffffffff038313600083121516156101e4576101e36103dc565b5b817f800000000000000000000000000000000000000000000000000000000000000003831260008312161561021c5761021b6103dc565b5b828201905092915050565b6000610232826103d2565b915061023d836103d2565b9250827f7fffffffffffffffffffffffffffffffffffffffffffffffffffffffffffffff048211600084136000841316161561027c5761027b6103dc565b5b817f800000000000000000000000000000000000000000000000000000000000000005831260008412600084131616156102b9576102b86103dc565b5b827f800000000000000000000000000000000000000000000000000000000000000005821260008413600084121616156102f6576102f56103dc565b5b827f7fffffffffffffffffffffffffffffffffffffffffffffffffffffffffffffff0582126000841260008412161615610333576103326103dc565b5b828202905092915050565b6000610349826103d2565b9150610354836103d2565b9250827f80000000000000000000000000000000000000000000000000000000000000000182126000841215161561038f5761038e6103dc565b5b827f7fffffffffffffffffffffffffffffffffffffffffffffffffffffffffffffff0182136000841216156103c7576103c66103dc565b5b828203905092915050565b6000819050919050565b7f4e487b7100000000000000000000000000000000000000000000000000000000600052601160045260246000fd5b610414816103d2565b811461041f57600080fd5b5056fea2646970667358221220ace00d63d96428a43826785486979e347be86e9ffa890f89f8b692fd367af55a64736f6c63430008000033",
  "linkReferences": {},
  "deployedLinkReferences": {}
}